S0100000377365676D656E742E73726563EA
S113000045C0000060C000005EC000005CC000008D
S11300105AC0000058C0000056C0000054C0000080
S113002052C0000050C000004EC000004CC0000090
S11300304AC0000048C0000046C0000044C00000A0
S1130040E0C0000040C000003EC000003CC0000012
S11300503AC0000038C0000036C0000034C00000C0
S113006032C0000030C000002EC000002CC00000D0
S11300702AC0000028C0000026C0000024C00000E0
S113008022C0000020C000001EC0000011241FBEBA
S1130090CFEFD0E1DEBFCDBF11E0A0E0B1E0E8EBEF
S11300A0F2E000E00BBF02C007900D92AC30B10744
S11300B0D9F721E0ACE0B1E001C01D92A631B2074E
S11300C0E1F7D7D0F7C09CCF2091100130911101F6
S11300D021303105F1F420910E0130910F012333C9
S11300E0310560F480910A0190910B0122E082278E
S11300F090930B0180930A0182BB10C0821793076F
S113010010F012BA0BC012BA10920F0110920E0125
S113011005C012BA10920F0110920E0180910E01C7
S113012090910F01019690930F0180930E01089511
S113013080B3817080931001109211010895209171
S11301401001309111012130310509F03EC0209198
S11301500C0130910D012817390708F440C0409173
S11301601401509115019A01ADECBCEC94D0969514
S1130170879596958795969587959C01220F331FB1
S1130180880F991F880F991F880F991F820F931F3B
S11301909A01281B390B3093150120931401E09127
S11301A01401F0911501E050FF4F808183B98091D3
S11301B014019091150101969093150180931401F7
S11301C010920D0110920C010AC010920D011092B0
S11301D00C0110921501109214018EE783B98091DD
S11301E00C0190910D01019690930D0180930C01E7
S11301F008959EDF84EF91E067DF88E893E19FCF65
S113020008951F920F920FB60F9211240BB60F92FE
S11302102F933F934F935F936F937F938F939F930A
S1130220AF93BF93EF93FF9386E082BF8091120157
S113023090911301019690931301809312010A97F0
S113024028F0D7DF1092130110921201FF91EF9161
S1130250BF91AF919F918F917F916F915F914F91DA
S11302603F912F910F900BBE0F900FBE0F901F90D8
S113027018958FEF82B982E081BB8EE783B983B78B
S1130280846083BF87B7816087BF81E087BF86E0D2
S113029082BF7894FFCFA29FB001B39FC001A39FF8
S11302A0700D811D1124911DB29F700D811D1124AB
S10B02B0911D0895F894FFCF9D
S10F02B8603D79635B5F727F7B7702001E
S9030000FC
