:1000000045C0000058C0000056C0000054C00000A9
:1000100052C0000050C000004EC000004CC00000A4
:100020004AC0000048C0000046C0000044C00000B4
:1000300042C0000040C000003EC000003CC00000C4
:100040003AC0000038C0000036C0000034C00000D4
:1000500032C0000030C000002EC000002CC00000E4
:100060002AC0000028C0000026C0000024C00000F4
:1000700022C0000020C000001EC000001CC0000004
:100080001AC0000018C0000016C0000011241FBED6
:10009000CFEFD0E1DEBFCDBF11E0A0E0B1E0E4E101
:1000A000F4E000E00BBF02C007900D92AA31B10747
:1000B000D9F77BD1ADC1A4CFE4E7F0E0108294EA98
:1000C0009083909174009923E4F790917100987F48
:1000D000983011F09031B1F490E0880F991F862B81
:1000E0008093730084E88093740080917400882367
:1000F000E4F780917100887F883131F0803431F4E9
:1001000080E008958AE0089580E0089584E10895EC
:100110008093730084E88093740080917400882336
:10012000E4F780917100887F883211F085E10895AD
:1001300080E0089584E9809374000895CF93C62FDA
:1001400060E0BADF811106C08C2FE2DF811102C0AE
:10015000F1DF80E0CF910895FC012381622B808143
:10016000EDCF089528E0FC01238360E0F5CF0895EA
:100170000F931F93CF938C01C62F6460EDDF8AE04D
:100180008A95F1F700C06C2F6B7FC801E5DF87EC23
:1001900090E00197F1F700C00000CF911F910F91FF
:1001A00008951F93CF93DF93EC01162FD5DF612FB6
:1001B000CE01DEDFDF91CF911F910895FF920F9363
:1001C0001F93CF93DF938C01F42E862F807F90E1D5
:1001D000699FE0011124682F642BC801E2DF6C2FB6
:1001E0006F29C801DEDFDF91CF911F910F91FF9042
:1001F00008950F931F93CF93DF938C01EB016881D8
:1002000005C041E0C801DADF219668816111F9CFAC
:10021000DF91CF911F910F91089540E0CFCF0895C6
:10022000CF93DF9300D000D0CDB7DEB7198220E4A2
:100230002A8324E12B8324E52C83E1E0F0E0EC0F1A
:10024000FD1FE60FF11D6081640F6068E6DF0F900F
:100250000F900F900F90DF91CF910895CF93DF9380
:10026000EC0161E0DADF8FE39FE10197F1F700C075
:10027000000040E060E0CE01D3DFDF91CF91089530
:1002800062E0CBDF8FE39FE10197F1F700C0000050
:100290000895FC016581262F246025836C60BDCF05
:1002A0000895CF93DF93CDB7DEB72E970FB6F894AE
:1002B000DEBF0FBECDBF888769874A871B862C8724
:1002C00084E08D8782E08E87423018F0822F88602C
:1002D0008C87222329F0413019F48C8584608C8727
:1002E0002FEF81EE94E0215080409040E1F700C074
:1002F000000060E0CE0108962FDF2FEF83ED90E342
:10030000215080409040E1F700C0000060E3CE0142
:10031000089622DF8FE496E40197F1F700C0000011
:1003200060E3CE0108963DDF8FE496E40197F1F794
:1003300000C0000060E3CE01089633DF87E592E05D
:100340000197F1F700C0000060E2CE01089629DFB6
:100350006C856062CE01089660DFCE01089699DF59
:10036000CE0108967BDF6E856460CE01089655DF6E
:10037000CE01089685DF87E0FE013896DE011196F2
:1003800001900D928A95E1F729813A814B815C8138
:100390006D817E818F8190E02E960FB6F894DEBF3E
:1003A0000FBECDBFDF91CF910895CF93DF93CDB72F
:1003B000DEB727970FB6F894DEBF0FBECDBF28E09B
:1003C00044E064E187E26DDF29833A834B835C83F9
:1003D0006D837E838F83CE010196C4DE60E071E081
:1003E000CE01019606DF40E061E0CE01019618DF04
:1003F0006DE071E0CE010196FCDE80E090E0279692
:100400000FB6F894DEBF0FBECDBFDF91CF91089538
:04041000F894FFCF8E
:1004140048656C6C6F20776F726C642100486F774D
:0A0424002061726520796F753F00BA
:00000001FF
