:1000000045C0000060C000005EC000005CC0000091
:100010005AC0000058C0000056C0000054C0000084
:1000200052C0000050C000004EC000004CC0000094
:100030004AC0000048C0000046C0000044C00000A4
:100040008FC0000040C000003EC000003CC0000067
:100050003AC0000038C0000036C0000034C00000C4
:1000600032C0000030C000002EC000002CC00000D4
:100070002AC0000028C0000026C0000024C00000E4
:1000800022C0000020C000001EC0000011241FBEBE
:10009000CFEFD0E1DEBFCDBF11E0A0E0B1E0E2EFF5
:1000A000F1E000E00BBF02C007900D92A230B10753
:1000B000D9F721E0A2E0B1E001C01D92AA30B20759
:1000C000E1F786D094C09CCF2091040130910501C6
:1000D00021303105C9F4209106013091070128171C
:1000E000390770F0809100019091010121E0822791
:1000F0009093010180930001109207011092060174
:100100008091000185BB01C015BA809106019091D4
:10011000070101969093070180930601089581E0FD
:1001200020910201309103012130310509F480E072
:1001300083B9089586B381708093040110920501FC
:10014000089581B186958170809302011092030118
:100150000895F0DFF6DF84E690E0B6DFE0CF0895A3
:100160001F920F920FB60F9211240BB60F922F937E
:100170003F934F935F936F937F938F939F93AF932F
:10018000BF93EF93FF9386E082BF80910801909127
:100190000901019690930901809308010A9728F0BC
:1001A000D8DF1092090110920801FF91EF91BF91E1
:1001B000AF919F918F917F916F915F914F913F91FF
:1001C0002F910F900BBE0F900FBE0F901F901895A0
:1001D00081E084BB17BA82B993B7946093BF97B795
:1001E000916097BF87BF86E082BF7894FFCFF89475
:0201F000FFCF3F
:0201F20001000A
:00000001FF
